:0600000002004B02017F2B
:03000B00020416D6
:030013000201D215
:01001B0032B2
:03002300020133A4
:01002B0032A2
:01003300329A
:03003B0002022599
:030043000200F4C4
:030046000202793A
:02004900E4735E
:0D004B00758127120287E5826003020046DE
:100058007915E94400601B7A0190113D78BC75A0C0
:1000680000E493F2A308B8000205A0D9F4DAF27507
:02007800A0FFE7
:06007A00E478FFF6D8FD5A
:100080007800E84400600A799475A000E4F309D888
:10009000FC7828E84400600C7901900094E4F0A317
:0400A000D8FCD9FAB5
:0600A400751079751102D0
:0E00AA007808E4F608F608F608F6780C7600FA
:0200B800C20084
:0200BA00C20181
:0300BC00020046F9
:1000BF009000947401F075822102028B9000957468
:1000CF0001F07582211203A29003E8E4F5F0120407
:1000DF00CE900095E4F07582211203A29003E8E41C
:0500EF00F5F00204CE53
:1000F400C021C0E0C0F0C082C083C007C006C005F4
:10010400C004C003C002C001C000C0D075D000123A
:100114000AC2D0D0D000D001D002D003D004D00580
:10012400D006D007D083D082D0F0D0E0D02132C026
:1001340021C0E0C0F0C082C083C007C006C005C0B3
:1001440004C003C002C001C000C0D075D000309804
:1001540005120EEBC298309905120F21C299D0D026
:10016400D000D001D002D003D004D005D006D007EF
:10017400D083D082D0F0D0E0D02132C021C0E0C002
:10018400F0C082C083C007C006C005C004C003C05D
:1001940002C001C000C0D075D0009000C9E0FEA329
:1001A400E0FFC007C0068E828F83120049D006D0BC
:1001B40007D0D0D000D001D002D003D004D005D0D5
:1001C40006D007D083D082D0F0D0E0D02132C02135
:1001D400C0E0C0F0C082C083C007C006C005C00430
:1001E400C003C002C001C000C0D075D0009000CBD5
:1001F400E0FEA3E0FFC007C0068E828F8312004991
:10020400D006D007D0D0D000D001D002D003D00483
:10021400D005D006D007D083D082D0F0D0E0D02152
:1002240032C021C0E0C0F0C082C083C007C006C095
:1002340005C004C003C002C001C000C0D075D00016
:100244009000BCE0FEA3E04E600E9000BCE0F8A37A
:10025400E0F5838882120049D0D0D000D001D002CA
:10026400D003D004D005D006D007D083D082D0F0FC
:10027400D0E0D021321205971200BF1200CB120C2D
:07028400A880F8758200223A
:10028B00E582FF90103893FEEF90101093FF7001F2
:10029B0022900094E0FD701BBF0209EEF4FC529219
:1002AB00EC529322BF0402800122EEF4FC5296EC36
:1002BB00529722BD0214BF0207EE4292EE429322E6
:1002CB00BF0439EE4296EE429722BD0116BF0208DB
:1002DB00EEF45292EE429322BF0421EEF45296EECC
:1002EB00429722BD0316BF0208EE4292EEF45293E0
:1002FB0022BF0408EE4296EEF4FE529722AF82BF65
:10030B000102800FBF02028013BF03028017BF04DC
:10031B00358023E5C620E22E539DFB22E5C620E364
:10032B0025539DF722AEC65306047F00BE0117BFAF
:10033B000014539DFB22AEC65306087F00BE010678
:10034B00BF0003539DF722E582FF900FE893FEEF6A
:10035B0090103893FDEF90101093FF7003F58222ED
:10036B00EE600D8E82C007C005120308D005D007C2
:10037B007E00BF0202800ABF03028009BF040C800B
:10038B0008AE908006AEA08002AEB0ED5E60047544
:10039B0082012275820022E582FF900FE893FEEF27
:1003AB0090103893FDEF90101093FFEE600D8E823E
:1003BB00C007C005120308D005D007A2AFE433FE77
:1003CB00C2AFBF0202800ABF03028017BF04368090
:1003DB0024900095E07007EDF4FF52908027ED42DA
:1003EB00908022900095E07007EDF4FF52A08015ED
:1003FB00ED42A08010900095E07007EDF4FF52B035
:0B040B008003ED42B0EE6002D2AF2291
:10041600C0D075D00808B8000D09B900090ABA009D
:10042600050BBB00010CD0D032A2AFC2AFA808A901
:1004360009AA0AAB0BAC8A8588F092AF30F5127424
:10044600012C600D08B8000909B900050ABA0001B7
:100456000BECC313FC75F07DE8A4F8ADF075F07DE8
:10046600E9A42DF9E435F0FD75F07DEAA42DFAE452
:1004760035F0FD75F07DEBA42DFB7D00EC28F582B3
:10048600E93DF583EA3DF5F0EB3D22A2AFC2AFA808
:1004960008A909AA0AAB0BAC0C92AF75F020E8A428
:1004A600A8F075F020E9A428F582A8F075F020EAF6
:1004B600A428F583A8F075F020EBA428F9A8F07518
:1004C600F020ECA42889F02285821285831385F01A
:1004D60014F51512042F85821685831785F018F5F5
:1004E60019E512451345144515700122A812A913E2
:1004F600AA14AB1585161A85171B85181C85191D98
:10050600E8494A4B60DBC003C002C001C0001204C8
:100516002FAC82AD83AEF0FFD000D001D002D00365
:10052600ECC3951AFCED951BFDEE951CFEEF951D93
:10053600FFC3EC94E8ED9403EE9400EF940040A121
:1005460018B8FF0919B9FF051ABAFF011B881289E5
:10055600138A148B1574E8251AF51A7403351BF5DE
:100566001BE4351CF51CE4351DF51D851A16851B87
:1005760017851C18851D198087AE82AF83EE4F60E4
:100586000F05A105A105A105A11EBEFF011F80ED56
:100596002275A15575A1AA74F855B94406F5B97521
:1005A600A10090138812057F120B92120BBC120B3E
:1005B600AB75DD0075D30075D500759E5D759D0024
:1005C60074F055894402F58953C9EF758C06C28DBE
:1005D600D2A9D28CD2AF22AFDBBF08028003020AB7
:1005E60004900007E0FE7F00900006E0FD7C004FCF
:1005F600F522EC4EF5237F00900001E0F5249000F3
:1006060000E0FE54606053900000E0FE5306607DFB
:1006160000BE2005BD0002800BBE4039BD00367FFE
:10062600FF020A067420B52403020A067421B524C3
:100636000280077422B52418800C120C2EAD82AEEF
:10064600838D07020A06C007120C5DD007020A0650
:100656007FFF020A067FFF020A06E52424F4500300
:10066600020A00E524240B83F582E524241083F591
:1006760083E473E21000D000DF9100EC0706060960
:10068600080A080A07060A07080A0A900003E0FE95
:10069600BE0102800DBE0202801DBE0302802D0235
:1006A600077175268875271090109AE493FD7401DA
:1006B60093FE8D0702077375269C7527109010E729
:1006C600E493FD740193FE8D07020773900002E028
:1006D60070157526E97527109010EDE493FD7401E9
:1006E60093FE8D07020773900002E0FEBE011475AB
:1006F600262D75271190113BE493FD740193FE8D11
:1007060007806A900002E0FEBE02147526FD75277A
:1007160010901113E493FD740193FE8D07804E90A3
:100726000002E0FEBE03147526EF7527109010FB3D
:10073600E493FD740193FE8D078032900002E0FE83
:10074600BE041475261575271190112BE493FD74BC
:100756000193FE8D0780167526EF7527109010FB06
:10076600E493FD740193FE8D0780027FFFBFFF03B4
:10077600020A068F057E00C3ED9522EE95235004EE
:100786008D228E23AD22AE23C3ED9408EE94004055
:10079600067B087C008004AB22AC238B077C00C35D
:1007A600EC9F50198C027B00EC2526F582E4352758
:1007B600F583E493F98A828B83F00C80E28F037CC5
:1007C60000EDC39BFDEE9CFE8D228E23EF2526F5C4
:1007D60026E43527F527020A06900002E0FE8E225F
:1007E600752300020A06900000E525F0AD22AE232F
:1007F600C3ED9401EE94005003020A067F01020A3B
:1008060006900002E0F525020A06900000E0541F5B
:10081600702F900003E0FD7E00900002E0FC7B005C
:100826004206EB4205BE0114BD00119010A3E493ED
:10083600FE30E503020A067FFF020A067FFF020A70
:1008460006900000E0FE53061F7D00BE0277BD0045
:1008560074900004E0FEBE0102805FBE0202804981
:10086600BE03028033BE0402801DBE81028040BEEC
:100876008202802ABE83028014BE844474BC55DE84
:100886004402F5DE020A0653DE73020A0674BC55FC
:10089600D64402F5D6020A0653D673020A0674BC7B
:1008A60055D44402F5D4020A0653D473020A0674D8
:1008B600BC55D24402F5D2020A0653D273020A0686
:1008C6007FFF020A067FFF020A06900000E0541F1F
:1008D600702F900003E0FD7E00900002E0FC7B009C
:1008E6004206EB4205BE0114BD00119010A3E4932D
:1008F600FE30E503020A067FFF020A067FFF020AB0
:1009060006900000E0FE53061F7D00BE0205BD00F6
:100916000280030209DE900003E0FD7E00900002E3
:10092600E0FC7B004206EB4205EE4D60030209DA6D
:10093600900005E0FD7E00900004E0FC7B0042068E
:10094600EB4205BE0106BD00030209CEBE0205BD8F
:1009560000028060BE0305BD00028044BE0405BDE2
:1009660000028028BE8105BD00028052BE8205BD00
:1009760000028036BE8305BD0002801ABE8451BDCA
:10098600004E74BF55DE4403F5DE8074747F55DE79
:10099600440CF5DE806A74BF55D64403F5D68060F4
:1009A600747F55D6440CF5D6805674BF55D444038F
:1009B600F5D4804C747F55D4440CF5D4804274BF72
:1009C60055D24403F5D28038747F55D2440CF5D203
:1009D6007FFF802C7FFF80287FFF8024900000E42B
:1009E600F0900001F0AD22AE23C3ED9402EE940028
:1009F60040047F02800AAF2280067FFF80027FFFCD
:100A0600BFFF077524FF75DCCF22EF24F740068F62
:100A1600DD75DCC02275DD0075DCC0227405B524E9
:100A260002805F7406B52468AE22AF23C3EE940835
:100A3600EF940040067C087D008004AC22AD237D47
:100A460000C3ED9C50198D027B00ED2526F582E44E
:100A56003527F583E493F98A828B83F00D80E28C47
:100A6600037D00EEC39BFEEF9DFF8E228F23EC25B8
:100A760026F526E43527F5278CDDAEDC6306408EA9
:100A8600DC22E5E35480FFE5224FF5E375DC022224
:100A960075DD0075DC02227420B5240D30DE1012DF
:100AA6000BEC75DD0085DCDC2275DD0043DC022203
:100AB60075D30074FC55D24402F5D22220D9030224
:100AC6000B6DE5D9540FFFADD95305307E00BD003F
:100AD60005BE0002801CBD1005BE00028036BD208A
:100AE60005BE00028043BD3006BE0003020B530262
:100AF6000B6BEF24FB5003020B6BEF2F900B06736F
:100B0600800880618009805D805B120A9D80561294
:100B16000E438051EF24FB404CEF2F900B25738042
:100B26004480428040803E803CEF24FB4037EF2FDC
:100B3600900B3A738008800B800E80298027120A5A
:100B4600228022120AB6801D120E358018EF24FB71
:100B56004013EF2F900B5E73800880098007800595
:100B660080031205DDC2D930D81575DC0275D212A4
:100B760075D41275E300C2DAC2D9C2D8120BE410DA
:100B8600DA0122E5DA20E20375D8FF2275E2005386
:100B9600E27F43E22975E30053E2BF53D1FB75D1EF
:100BA6008043D1012243E10443E10243E10143D8FA
:100BB6001FD2EAD2AF227E0A7F008EEE8FEF7E141E
:100BC6007F008EE48FE575EB0C75D21275D4127E1C
:0E0BD600007F008EEC8FED75EA4075DC022288
:100BE4009000C5E4F0C200227F0074F925DB5006B2
:100BF4007D077E008004ADDB7E008F037C00C3EBA9
:100C04009DEC64808EF063F08095F0501CEF24BE60
:100C1400FDE43400FEEF2400F582E43400F583E0C3
:100C2400FC8D828E83F00F80C1227F008F057E00B1
:100C3400C3ED9407EE9400501CEF2400FDE434004F
:100C4400FEEF24BEF582E43400F583E0FC8D828E51
:100C540083F00F80D790000722900002E0FF9000FD
:100C6400C7F0E020E0309000BEE0FCA3E0FDA3E08C
:100C7400FEA3E0FFBCB01FBD041CBE0019BF0016DC
:100C840075E200C2AF90C35012057F90C3501205A5
:100C94007F12380080FE227F009000C7E060027F50
:100CA400018F82222000149000C8E0FFE0600C8FC6
:100CB400D553D4FCD2009000C8E4F022AF82900057
:100CC400C7E0605E7D007E003000240DBD00010E93
:100CD400900005C007C006C00512057FD005D006E8
:100CE400D007C3ED9450EE94C340DD75820022908A
:100CF40000C8E0FEBE400050207D0074402EFEE49B
:100D04003DFDEE2414F582ED3400F583EFF0900000
:100D1400C8E02401F075820122C007120CA8D00794
:100D240080A275820022AFF0AE83E582900098F035
:100D3400EEA3F0EFA3F09000C7E07003020DFD9066
:100D44000096E0FEA3E0FFC3E49E74808FF063F09E
:100D54008095F04003020DFD7E007F003000200EE0
:100D6400BE00010F900005C007C00612057FD00623
:100D7400D007C3EE9450EF94C340E17582002290F3
:100D84000098E0FDA3E0FEA3E0FF900096E0FBA343
:100D9400E0FCC3E49B74808CF063F08095F0509F7A
:100DA4009000C8E0FABA400050498A017A007440C1
:100DB40029F9E43AFAE92414F9EA3400FA8D828E26
:100DC400838FF0120ECFF8A3AD82AE83900098ED1E
:100DD400F0EEA3F0EFA3F089828A83E8F09000C8D4
:100DE400E02401F01BBBFF011C900096EBF0ECA388
:100DF400F0809F120CA8020D43758200229000C55A
:100E0400E0F582229000C5E07003F582229000C6CE
:100E1400E02414F582E43400F583E0FF9000C6E09A
:100E240004F09000C5E014F0E0700353D4F38F8213
:100E34002275D50074FC55D44402F5D4C200223086
:100E4400DE199000C5E5DBF09000C6E4F09000C523
:0C0E5400E0600874F355D44408F5D42283
:100E600022AF82BF02005036EF75F002A424C9F50C
:100E700082740035F0F583E51EF0E51FA3F0BF0096
:100E8000028005BF0118800B90009BE024FF928830
:100E9000D2A82290009BE0FF24FF928AD2AA22AF20
:100EA00082BF02005028BF00028005BF01088004F5
:100EB000C2A88002C2AAEF75F002A424C9FE740081
:0F0EC00035F0FF8E828F837460F0740EA3F022E2
:100ECF0020F71430F6148883A88220F507E6A8834C
:0C0EDF0075830022E280F7E49322E022F9
:100EEB009000CDE0FF7E008F828E83A3751E108E47
:100EFB001F120FB2AE829000CEE0FFEEB5070122BB
:100F0B009000CDE0249CF582E43400F583E599F064
:100F1B009000CDEEF0223001409000CFE0FF90002A
:100F2B00D0E0FEEFB50605A201C201229000D0E091
:100F3B0024ACF582E43400F583E0F5999000D0E021
:100F4B00FF7E008F828E83A3751E108E1F120FB231
:0A0F5B00AE82AF839000D0EEF022CA
:100F6500E51E451F60467A01E51E25E0F51EE51FD5
:100F7500334012F51FE582951EE583951F40030A50
:100F850080E6C3E51F13F51FE51E13F51EC3E582B5
:100F9500951EF5F0E583951F4005F58385F082C321
:100FA500E51F13F51FE51E13F51EDAE122C2D5E58F
:100FB5008330E70DD2D5E4C39582F582E49583F5B8
:100FC50083E51F30E70BE4C3951EF51EE4951FF579
:100FD5001F120F6530D50BE4C39582F582E4958326
:030FE500F583226F
:100FE80000000000000000000000000000000001F8
:100FF80000000000000000000000000000000304E2
:1010080000000200000000000101010101010101CE
:1010180000000202020202020202000003030303AC
:10102800030303030000040404040404040400008C
:10103800010204081020408000000102040810206A
:1010480040800000010204081020408000000102D6
:101058000408102040800000FFFFFFFFFFFFFFFF94
:10106800FFFFFF00FFFF0102FFFFFFFFFFFFFFFF82
:10107800FFFFFFFFFFFFFFFF03FFFFFFFFFFFFFF74
:1010880012011001EF020108091250C50101010205
:101098000301120009024B000201008064080B00E2
:1010A80002020201040904000001020201040524ED
:1010B8000010010524010000042402020524060092
:1010C800010705810308004009040100020A000025
:1010D8000407050202400000070582024000004B99
:1010E800000403090404000C0343004800350035DC
:1010F8000078000C001603430048003500350078DE
:10110800006400750069006E006F00160016034346
:10111800004400430020005300650072006900612C
:10112800006C0016000E0344006500710069006E33
:051138000067000E003D
:02113D000000B0
:0B113F0000E1000000000800000000BC
:04114A00600E600EC5
:04114E00000000009D
:00000001FF
